{
  "contractName": "Voting",
  "abi": [
    {
      "inputs": [],
      "stateMutability": "nonpayable",
      "type": "constructor"
    },
    {
      "inputs": [],
      "name": "admin",
      "outputs": [
        {
          "internalType": "address",
          "name": "",
          "type": "address"
        }
      ],
      "stateMutability": "view",
      "type": "function"
    },
    {
      "inputs": [
        {
          "internalType": "uint256",
          "name": "",
          "type": "uint256"
        }
      ],
      "name": "candidates",
      "outputs": [
        {
          "internalType": "string",
          "name": "name",
          "type": "string"
        },
        {
          "internalType": "uint256",
          "name": "voteCount",
          "type": "uint256"
        }
      ],
      "stateMutability": "view",
      "type": "function"
    },
    {
      "inputs": [
        {
          "internalType": "address",
          "name": "",
          "type": "address"
        }
      ],
      "name": "hasVoted",
      "outputs": [
        {
          "internalType": "bool",
          "name": "",
          "type": "bool"
        }
      ],
      "stateMutability": "view",
      "type": "function"
    },
    {
      "inputs": [
        {
          "internalType": "address",
          "name": "",
          "type": "address"
        }
      ],
      "name": "voters",
      "outputs": [
        {
          "internalType": "bool",
          "name": "",
          "type": "bool"
        }
      ],
      "stateMutability": "view",
      "type": "function"
    },
    {
      "inputs": [
        {
          "internalType": "string",
          "name": "_name",
          "type": "string"
        }
      ],
      "name": "addCandidate",
      "outputs": [],
      "stateMutability": "nonpayable",
      "type": "function"
    },
    {
      "inputs": [
        {
          "internalType": "address",
          "name": "_voter",
          "type": "address"
        }
      ],
      "name": "registerVoter",
      "outputs": [],
      "stateMutability": "nonpayable",
      "type": "function"
    },
    {
      "inputs": [
        {
          "internalType": "uint256",
          "name": "_candidateId",
          "type": "uint256"
        }
      ],
      "name": "vote",
      "outputs": [],
      "stateMutability": "nonpayable",
      "type": "function"
    },
    {
      "inputs": [],
      "name": "getCandidateCount",
      "outputs": [
        {
          "internalType": "uint256",
          "name": "",
          "type": "uint256"
        }
      ],
      "stateMutability": "view",
      "type": "function"
    },
    {
      "inputs": [
        {
          "internalType": "uint256",
          "name": "_id",
          "type": "uint256"
        }
      ],
      "name": "getCandidate",
      "outputs": [
        {
          "internalType": "string",
          "name": "",
          "type": "string"
        },
        {
          "internalType": "uint256",
          "name": "",
          "type": "uint256"
        }
      ],
      "stateMutability": "view",
      "type": "function"
    }
  ],
  "bytecode": "0x608060405234801561001057600080fd5b50336000806101000a81548173ffffffffffffffffffffffffffffffffffffffff021916908373ffffffffffffffffffffffffffffffffffffffff160217905550610f7c806100606000396000f3fe608060405234801561001057600080fd5b50600436106100935760003560e01c806335b8e8201161006657806335b8e8201461013357806338db6dd314610164578063462e91ec14610180578063a3ec138d1461019c578063f851a440146101cc57610093565b80630121b93f1461009857806309eef43e146100b457806330a56347146100e45780633477ee2e14610102575b600080fd5b6100b260048036038101906100ad9190610a08565b6101ea565b005b6100ce60048036038101906100c9919061099e565b610406565b6040516100db9190610bf2565b60405180910390f35b6100ec610426565b6040516100f99190610cdd565b60405180910390f35b61011c60048036038101906101179190610a08565b610433565b60405161012a929190610c0d565b60405180910390f35b61014d60048036038101906101489190610a08565b6104ef565b60405161015b929190610c0d565b60405180910390f35b61017e6004803603810190610179919061099e565b610641565b005b61019a600480360381019061019591906109c7565b61072a565b005b6101b660048036038101906101b1919061099e565b610825565b6040516101c39190610bf2565b60405180910390f35b6101d4610845565b6040516101e19190610bd7565b60405180910390f35b600260003373ffffffffffffffffffffffffffffffffffffffff1673ffffffffffffffffffffffffffffffffffffffff16815260200190815260200160002060009054906101000a900460ff16610276576040517f08c379a000000000000000000000000000000000000000000000000000000000815260040161026d90610c3d565b60405180910390fd5b600360003373ffffffffffffffffffffffffffffffffffffffff1673ffffffffffffffffffffffffffffffffffffffff16815260200190815260200160002060009054906101000a900460ff1615610303576040517f08c379a00000000000000000000000000000000000000000000000000000000081526004016102fa90610c9d565b60405180910390fd5b600180549050811061034a576040517f08c379a000000000000000000000000000000000000000000000000000000000815260040161034190610c7d565b60405180910390fd5b60018181548110610384577f4e487b7100000000000000000000000000000000000000000000000000000000600052603260045260246000fd5b906000526020600020906002020160010160008154809291906103a690610e31565b91905055506001600360003373ffffffffffffffffffffffffffffffffffffffff1673ffffffffffffffffffffffffffffffffffffffff16815260200190815260200160002060006101000a81548160ff02191690831515021790555050565b60036020528060005260406000206000915054906101000a900460ff1681565b6000600180549050905090565b6001818154811061044357600080fd5b906000526020600020906002020160009150905080600001805461046690610dff565b80601f016020809104026020016040519081016040528092919081815260200182805461049290610dff565b80156104df5780601f106104b4576101008083540402835291602001916104df565b820191906000526020600020905b8154815290600101906020018083116104c257829003601f168201915b5050505050908060010154905082565b60606000600180549050831061053a576040517f08c379a000000000000000000000000000000000000000000000000000000000815260040161053190610c5d565b60405180910390fd5b600060018481548110610576577f4e487b7100000000000000000000000000000000000000000000000000000000600052603260045260246000fd5b906000526020600020906002020160405180604001604052908160008201805461059f90610dff565b80601f01602080910402602001604051908101604052809291908181526020018280546105cb90610dff565b80156106185780601f106105ed57610100808354040283529160200191610618565b820191906000526020600020905b8154815290600101906020018083116105fb57829003601f168201915b505050505081526020016001820154815250509050806000015181602001519250925050915091565b60008054906101000a900473ffffffffffffffffffffffffffffffffffffffff1673ffffffffffffffffffffffffffffffffffffffff163373ffffffffffffffffffffffffffffffffffffffff16146106cf576040517f08c379a00000000000000000000000000000000000000000000000000000000081526004016106c690610cbd565b60405180910390fd5b6001600260008373ffffffffffffffffffffffffffffffffffffffff1673ffffffffffffffffffffffffffffffffffffffff16815260200190815260200160002060006101000a81548160ff02191690831515021790555050565b60008054906101000a900473ffffffffffffffffffffffffffffffffffffffff1673ffffffffffffffffffffffffffffffffffffffff163373ffffffffffffffffffffffffffffffffffffffff16146107b8576040517f08c379a00000000000000000000000000000000000000000000000000000000081526004016107af90610cbd565b60405180910390fd5b60016040518060400160405280838152602001600081525090806001815401808255809150506001900390600052602060002090600202016000909190919091506000820151816000019080519060200190610815929190610869565b5060208201518160010155505050565b60026020528060005260406000206000915054906101000a900460ff1681565b60008054906101000a900473ffffffffffffffffffffffffffffffffffffffff1681565b82805461087590610dff565b90600052602060002090601f01602090048101928261089757600085556108de565b82601f106108b057805160ff19168380011785556108de565b828001600101855582156108de579182015b828111156108dd5782518255916020019190600101906108c2565b5b5090506108eb91906108ef565b5090565b5b808211156109085760008160009055506001016108f0565b5090565b600061091f61091a84610d29565b610cf8565b90508281526020810184848401111561093757600080fd5b610942848285610dbd565b509392505050565b60008135905061095981610f18565b92915050565b600082601f83011261097057600080fd5b813561098084826020860161090c565b91505092915050565b60008135905061099881610f2f565b92915050565b6000602082840312156109b057600080fd5b60006109be8482850161094a565b91505092915050565b6000602082840312156109d957600080fd5b600082013567ffffffffffffffff8111156109f357600080fd5b6109ff8482850161095f565b91505092915050565b600060208284031215610a1a57600080fd5b6000610a2884828501610989565b91505092915050565b610a3a81610d75565b82525050565b610a4981610d87565b82525050565b6000610a5a82610d59565b610a648185610d64565b9350610a74818560208601610dcc565b610a7d81610f07565b840191505092915050565b6000610a95601883610d64565b91507f796f752068617665206e6f7420726567697374657265642100000000000000006000830152602082019050919050565b6000610ad5601583610d64565b91507f496e76616c69642063616e6469646174652049442100000000000000000000006000830152602082019050919050565b6000610b15601283610d64565b91507f496e76616c69642063616e6469646174652100000000000000000000000000006000830152602082019050919050565b6000610b55601783610d64565b91507f796f75206861766520616c726561647920766f746564210000000000000000006000830152602082019050919050565b6000610b95601783610d64565b91507f4f6e6c792061646d696e2063616e20646f2074686973210000000000000000006000830152602082019050919050565b610bd181610db3565b82525050565b6000602082019050610bec6000830184610a31565b92915050565b6000602082019050610c076000830184610a40565b92915050565b60006040820190508181036000830152610c278185610a4f565b9050610c366020830184610bc8565b9392505050565b60006020820190508181036000830152610c5681610a88565b9050919050565b60006020820190508181036000830152610c7681610ac8565b9050919050565b60006020820190508181036000830152610c9681610b08565b9050919050565b60006020820190508181036000830152610cb681610b48565b9050919050565b60006020820190508181036000830152610cd681610b88565b9050919050565b6000602082019050610cf26000830184610bc8565b92915050565b6000604051905081810181811067ffffffffffffffff82111715610d1f57610d1e610ed8565b5b8060405250919050565b600067ffffffffffffffff821115610d4457610d43610ed8565b5b601f19601f8301169050602081019050919050565b600081519050919050565b600082825260208201905092915050565b6000610d8082610d93565b9050919050565b60008115159050919050565b600073ffffffffffffffffffffffffffffffffffffffff82169050919050565b6000819050919050565b82818337600083830152505050565b60005b83811015610dea578082015181840152602081019050610dcf565b83811115610df9576000848401525b50505050565b60006002820490506001821680610e1757607f821691505b60208210811415610e2b57610e2a610ea9565b5b50919050565b6000610e3c82610db3565b91507fffffffffffffffffffffffffffffffffffffffffffffffffffffffffffffffff821415610e6f57610e6e610e7a565b5b600182019050919050565b7f4e487b7100000000000000000000000000000000000000000000000000000000600052601160045260246000fd5b7f4e487b7100000000000000000000000000000000000000000000000000000000600052602260045260246000fd5b7f4e487b7100000000000000000000000000000000000000000000000000000000600052604160045260246000fd5b6000601f19601f8301169050919050565b610f2181610d75565b8114610f2c57600080fd5b50565b610f3881610db3565b8114610f4357600080fd5b5056fea2646970667358221220b7c4ea7400a2506c8621cd2bb2dda14c4c76b9ee39b7dd5952b7459f970b953564736f6c63430008000033",
  "immutableReferences": {},
  "source": "pragma solidity ^0.8.0;\r\n\r\ncontract Voting {\r\n    address public admin;  // Admins Ethereum address\r\n    struct Candidate {\r\n        string name;\r\n        uint voteCount;\r\n    }\r\n    Candidate[] public candidates;  // List of candidates\r\n    mapping(address => bool) public voters;  // Registered voters\r\n    mapping(address => bool) public hasVoted;  // Tracks who voted\r\n\r\n    // Only admin can call these functions\r\n    modifier onlyAdmin() {\r\n        require(msg.sender == admin, \"Only admin can do this!\");\r\n        _;\r\n    }\r\n\r\n    constructor() {\r\n        admin = msg.sender;  // Set the deployer as admin\r\n    }\r\n\r\n    // Admin adds a candidate\r\n    function addCandidate(string memory _name) public onlyAdmin {\r\n        candidates.push(Candidate(_name, 0));\r\n    }\r\n\r\n    // Admin registers a voter\r\n    function registerVoter(address _voter) public onlyAdmin {\r\n        voters[_voter] = true;\r\n    }\r\n\r\n    // Citizen votes\r\n    function vote(uint _candidateId) public {\r\n        require(voters[msg.sender], \"you have not registered!\");\r\n        require(!hasVoted[msg.sender], \"you have already voted!\");\r\n        require(_candidateId < candidates.length, \"Invalid candidate!\");\r\n        candidates[_candidateId].voteCount++;\r\n        hasVoted[msg.sender] = true;\r\n    }\r\n\r\n    // Get total number of candidates\r\n    function getCandidateCount() public view returns (uint) {\r\n        return candidates.length;\r\n    }\r\n\r\n    // Get candidate details\r\n    function getCandidate(uint _id) public view returns (string memory, uint) {\r\n        require(_id < candidates.length, \"Invalid candidate ID!\");\r\n        Candidate memory c = candidates[_id];\r\n        return (c.name, c.voteCount);\r\n    }\r\n}",
  "sourcePath": "C:\\Users\\jagad\\Documents\\Projects\\vote\\contracts\\Voting.sol",
  "compiler": {
    "name": "solc",
    "version": "0.8.0+commit.c7dfd78e.Emscripten.clang"
  },
  "schemaVersion": "3.4.16",
  "updatedAt": "2025-03-19T03:47:48.606Z",
  "devdoc": {
    "kind": "dev",
    "methods": {},
    "version": 1
  },
  "userdoc": {
    "kind": "user",
    "methods": {},
    "version": 1
  }
}