{
  "contractName": "Voting",
  "abi": [
    {
      "inputs": [],
      "stateMutability": "nonpayable",
      "type": "constructor"
    },
    {
      "inputs": [],
      "name": "admin",
      "outputs": [
        {
          "internalType": "address",
          "name": "",
          "type": "address"
        }
      ],
      "stateMutability": "view",
      "type": "function",
      "constant": true
    },
    {
      "inputs": [
        {
          "internalType": "uint256",
          "name": "",
          "type": "uint256"
        }
      ],
      "name": "adminActions",
      "outputs": [
        {
          "internalType": "string",
          "name": "action",
          "type": "string"
        },
        {
          "internalType": "string",
          "name": "dataHash",
          "type": "string"
        },
        {
          "internalType": "uint256",
          "name": "timestamp",
          "type": "uint256"
        }
      ],
      "stateMutability": "view",
      "type": "function",
      "constant": true
    },
    {
      "inputs": [
        {
          "internalType": "uint256",
          "name": "",
          "type": "uint256"
        }
      ],
      "name": "candidates",
      "outputs": [
        {
          "internalType": "string",
          "name": "name",
          "type": "string"
        },
        {
          "internalType": "uint256",
          "name": "voteCount",
          "type": "uint256"
        }
      ],
      "stateMutability": "view",
      "type": "function",
      "constant": true
    },
    {
      "inputs": [
        {
          "internalType": "address",
          "name": "",
          "type": "address"
        }
      ],
      "name": "voters",
      "outputs": [
        {
          "internalType": "bool",
          "name": "hasVoted",
          "type": "bool"
        },
        {
          "internalType": "bool",
          "name": "isRegistered",
          "type": "bool"
        }
      ],
      "stateMutability": "view",
      "type": "function",
      "constant": true
    },
    {
      "inputs": [
        {
          "internalType": "address",
          "name": "_voter",
          "type": "address"
        }
      ],
      "name": "registerVoter",
      "outputs": [],
      "stateMutability": "nonpayable",
      "type": "function"
    },
    {
      "inputs": [
        {
          "internalType": "string",
          "name": "_name",
          "type": "string"
        }
      ],
      "name": "addCandidate",
      "outputs": [],
      "stateMutability": "nonpayable",
      "type": "function"
    },
    {
      "inputs": [
        {
          "internalType": "uint256",
          "name": "_candidateId",
          "type": "uint256"
        },
        {
          "internalType": "string",
          "name": "_newName",
          "type": "string"
        }
      ],
      "name": "updateCandidateName",
      "outputs": [],
      "stateMutability": "nonpayable",
      "type": "function"
    },
    {
      "inputs": [
        {
          "internalType": "uint256",
          "name": "_candidateId",
          "type": "uint256"
        }
      ],
      "name": "vote",
      "outputs": [],
      "stateMutability": "nonpayable",
      "type": "function"
    },
    {
      "inputs": [],
      "name": "getCandidateCount",
      "outputs": [
        {
          "internalType": "uint256",
          "name": "",
          "type": "uint256"
        }
      ],
      "stateMutability": "view",
      "type": "function",
      "constant": true
    },
    {
      "inputs": [
        {
          "internalType": "uint256",
          "name": "_id",
          "type": "uint256"
        }
      ],
      "name": "getCandidate",
      "outputs": [
        {
          "internalType": "string",
          "name": "name",
          "type": "string"
        },
        {
          "internalType": "uint256",
          "name": "voteCount",
          "type": "uint256"
        }
      ],
      "stateMutability": "view",
      "type": "function",
      "constant": true
    },
    {
      "inputs": [
        {
          "internalType": "string",
          "name": "_action",
          "type": "string"
        },
        {
          "internalType": "string",
          "name": "_dataHash",
          "type": "string"
        }
      ],
      "name": "logAdminAction",
      "outputs": [],
      "stateMutability": "nonpayable",
      "type": "function"
    },
    {
      "inputs": [],
      "name": "getAdminActionCount",
      "outputs": [
        {
          "internalType": "uint256",
          "name": "",
          "type": "uint256"
        }
      ],
      "stateMutability": "view",
      "type": "function",
      "constant": true
    },
    {
      "inputs": [
        {
          "internalType": "uint256",
          "name": "_id",
          "type": "uint256"
        }
      ],
      "name": "getAdminAction",
      "outputs": [
        {
          "internalType": "string",
          "name": "action",
          "type": "string"
        },
        {
          "internalType": "string",
          "name": "dataHash",
          "type": "string"
        },
        {
          "internalType": "uint256",
          "name": "timestamp",
          "type": "uint256"
        }
      ],
      "stateMutability": "view",
      "type": "function",
      "constant": true
    }
  ],
  "bytecode": "0x608060405234801561001057600080fd5b50336000806101000a81548173ffffffffffffffffffffffffffffffffffffffff021916908373ffffffffffffffffffffffffffffffffffffffff160217905550611730806100606000396000f3fe608060405234801561001057600080fd5b50600436106100cf5760003560e01c80633d9ce7de1161008c578063a3ec138d11610066578063a3ec138d14610214578063b2e32f0714610245578063ee20f82814610277578063f851a44014610293576100cf565b80633d9ce7de146101aa578063462e91ec146101c657806369975228146101e2576100cf565b80630121b93f146100d457806314b8ae48146100f057806330a563471461010e5780633477ee2e1461012c57806335b8e8201461015d57806338db6dd31461018e575b600080fd5b6100ee60048036038101906100e991906110e2565b6102b1565b005b6100f86104d7565b6040516101059190611484565b60405180910390f35b6101166104e4565b6040516101239190611484565b60405180910390f35b610146600480360381019061014191906110e2565b6104f1565b6040516101549291906113b4565b60405180910390f35b610177600480360381019061017291906110e2565b6105ad565b6040516101859291906113b4565b60405180910390f35b6101a860048036038101906101a3919061100c565b6106ff565b005b6101c460048036038101906101bf9190611076565b6107eb565b005b6101e060048036038101906101db9190611035565b610909565b005b6101fc60048036038101906101f791906110e2565b610a04565b60405161020b9392919061136f565b60405180910390f35b61022e6004803603810190610229919061100c565b610b4e565b60405161023c929190611346565b60405180910390f35b61025f600480360381019061025a91906110e2565b610b8c565b60405161026e9392919061136f565b60405180910390f35b610291600480360381019061028c919061110b565b610d7a565b005b61029b610eb3565b6040516102a8919061132b565b60405180910390f35b600260003373ffffffffffffffffffffffffffffffffffffffff1673ffffffffffffffffffffffffffffffffffffffff16815260200190815260200160002060000160019054906101000a900460ff16610340576040517f08c379a0000000000000000000000000000000000000000000000000000000008152600401610337906113e4565b60405180910390fd5b600260003373ffffffffffffffffffffffffffffffffffffffff1673ffffffffffffffffffffffffffffffffffffffff16815260200190815260200160002060000160009054906101000a900460ff16156103d0576040517f08c379a00000000000000000000000000000000000000000000000000000000081526004016103c790611424565b60405180910390fd5b6001805490508110610417576040517f08c379a000000000000000000000000000000000000000000000000000000000815260040161040e90611464565b60405180910390fd5b6001600260003373ffffffffffffffffffffffffffffffffffffffff1673ffffffffffffffffffffffffffffffffffffffff16815260200190815260200160002060000160006101000a81548160ff02191690831515021790555060018082815481106104ad577f4e487b7100000000000000000000000000000000000000000000000000000000600052603260045260246000fd5b906000526020600020906002020160010160008282546104cd919061151c565b9250508190555050565b6000600380549050905090565b6000600180549050905090565b6001818154811061050157600080fd5b9060005260206000209060020201600091509050806000018054610524906115fc565b80601f0160208091040260200160405190810160405280929190818152602001828054610550906115fc565b801561059d5780601f106105725761010080835404028352916020019161059d565b820191906000526020600020905b81548152906001019060200180831161058057829003601f168201915b5050505050908060010154905082565b6060600060018054905083106105f8576040517f08c379a00000000000000000000000000000000000000000000000000000000081526004016105ef90611464565b60405180910390fd5b600060018481548110610634577f4e487b7100000000000000000000000000000000000000000000000000000000600052603260045260246000fd5b906000526020600020906002020160405180604001604052908160008201805461065d906115fc565b80601f0160208091040260200160405190810160405280929190818152602001828054610689906115fc565b80156106d65780601f106106ab576101008083540402835291602001916106d6565b820191906000526020600020905b8154815290600101906020018083116106b957829003601f168201915b505050505081526020016001820154815250509050806000015181602001519250925050915091565b60008054906101000a900473ffffffffffffffffffffffffffffffffffffffff1673ffffffffffffffffffffffffffffffffffffffff163373ffffffffffffffffffffffffffffffffffffffff161461078d576040517f08c379a000000000000000000000000000000000000000000000000000000000815260040161078490611444565b60405180910390fd5b6001600260008373ffffffffffffffffffffffffffffffffffffffff1673ffffffffffffffffffffffffffffffffffffffff16815260200190815260200160002060000160016101000a81548160ff02191690831515021790555050565b60008054906101000a900473ffffffffffffffffffffffffffffffffffffffff1673ffffffffffffffffffffffffffffffffffffffff163373ffffffffffffffffffffffffffffffffffffffff1614610879576040517f08c379a000000000000000000000000000000000000000000000000000000000815260040161087090611444565b60405180910390fd5b6003604051806060016040528084815260200183815260200142815250908060018154018082558091505060019003906000526020600020906003020160009091909190915060008201518160000190805190602001906108db929190610ed7565b5060208201518160010190805190602001906108f8929190610ed7565b506040820151816002015550505050565b60008054906101000a900473ffffffffffffffffffffffffffffffffffffffff1673ffffffffffffffffffffffffffffffffffffffff163373ffffffffffffffffffffffffffffffffffffffff1614610997576040517f08c379a000000000000000000000000000000000000000000000000000000000815260040161098e90611444565b60405180910390fd5b600160405180604001604052808381526020016000815250908060018154018082558091505060019003906000526020600020906002020160009091909190915060008201518160000190805190602001906109f4929190610ed7565b5060208201518160010155505050565b60038181548110610a1457600080fd5b9060005260206000209060030201600091509050806000018054610a37906115fc565b80601f0160208091040260200160405190810160405280929190818152602001828054610a63906115fc565b8015610ab05780601f10610a8557610100808354040283529160200191610ab0565b820191906000526020600020905b815481529060010190602001808311610a9357829003601f168201915b505050505090806001018054610ac5906115fc565b80601f0160208091040260200160405190810160405280929190818152602001828054610af1906115fc565b8015610b3e5780601f10610b1357610100808354040283529160200191610b3e565b820191906000526020600020905b815481529060010190602001808311610b2157829003601f168201915b5050505050908060020154905083565b60026020528060005260406000206000915090508060000160009054906101000a900460ff16908060000160019054906101000a900460ff16905082565b60608060006003805490508410610bd8576040517f08c379a0000000000000000000000000000000000000000000000000000000008152600401610bcf90611404565b60405180910390fd5b600060038581548110610c14577f4e487b7100000000000000000000000000000000000000000000000000000000600052603260045260246000fd5b9060005260206000209060030201604051806060016040529081600082018054610c3d906115fc565b80601f0160208091040260200160405190810160405280929190818152602001828054610c69906115fc565b8015610cb65780601f10610c8b57610100808354040283529160200191610cb6565b820191906000526020600020905b815481529060010190602001808311610c9957829003601f168201915b50505050508152602001600182018054610ccf906115fc565b80601f0160208091040260200160405190810160405280929190818152602001828054610cfb906115fc565b8015610d485780601f10610d1d57610100808354040283529160200191610d48565b820191906000526020600020905b815481529060010190602001808311610d2b57829003601f168201915b505050505081526020016002820154815250509050806000015181602001518260400151935093509350509193909250565b60008054906101000a900473ffffffffffffffffffffffffffffffffffffffff1673ffffffffffffffffffffffffffffffffffffffff163373ffffffffffffffffffffffffffffffffffffffff1614610e08576040517f08c379a0000000000000000000000000000000000000000000000000000000008152600401610dff90611444565b60405180910390fd5b6001805490508210610e4f576040517f08c379a0000000000000000000000000000000000000000000000000000000008152600401610e4690611464565b60405180910390fd5b8060018381548110610e8a577f4e487b7100000000000000000000000000000000000000000000000000000000600052603260045260246000fd5b90600052602060002090600202016000019080519060200190610eae929190610ed7565b505050565b60008054906101000a900473ffffffffffffffffffffffffffffffffffffffff1681565b828054610ee3906115fc565b90600052602060002090601f016020900481019282610f055760008555610f4c565b82601f10610f1e57805160ff1916838001178555610f4c565b82800160010185558215610f4c579182015b82811115610f4b578251825591602001919060010190610f30565b5b509050610f599190610f5d565b5090565b5b80821115610f76576000816000905550600101610f5e565b5090565b6000610f8d610f88846114d0565b61149f565b905082815260208101848484011115610fa557600080fd5b610fb08482856115ba565b509392505050565b600081359050610fc7816116cc565b92915050565b600082601f830112610fde57600080fd5b8135610fee848260208601610f7a565b91505092915050565b600081359050611006816116e3565b92915050565b60006020828403121561101e57600080fd5b600061102c84828501610fb8565b91505092915050565b60006020828403121561104757600080fd5b600082013567ffffffffffffffff81111561106157600080fd5b61106d84828501610fcd565b91505092915050565b6000806040838503121561108957600080fd5b600083013567ffffffffffffffff8111156110a357600080fd5b6110af85828601610fcd565b925050602083013567ffffffffffffffff8111156110cc57600080fd5b6110d885828601610fcd565b9150509250929050565b6000602082840312156110f457600080fd5b600061110284828501610ff7565b91505092915050565b6000806040838503121561111e57600080fd5b600061112c85828601610ff7565b925050602083013567ffffffffffffffff81111561114957600080fd5b61115585828601610fcd565b9150509250929050565b61116881611572565b82525050565b61117781611584565b82525050565b600061118882611500565b611192818561150b565b93506111a28185602086016115c9565b6111ab816116bb565b840191505092915050565b60006111c360148361150b565b91507f566f746572206e6f7420726567697374657265640000000000000000000000006000830152602082019050919050565b600061120360118361150b565b91507f496e76616c696420616374696f6e2049440000000000000000000000000000006000830152602082019050919050565b600061124360178361150b565b91507f566f7465722068617320616c726561647920766f7465640000000000000000006000830152602082019050919050565b600061128360228361150b565b91507f4f6e6c792061646d696e2063616e20706572666f726d2074686973206163746960008301527f6f6e0000000000000000000000000000000000000000000000000000000000006020830152604082019050919050565b60006112e960148361150b565b91507f496e76616c69642063616e6469646174652049440000000000000000000000006000830152602082019050919050565b611325816115b0565b82525050565b6000602082019050611340600083018461115f565b92915050565b600060408201905061135b600083018561116e565b611368602083018461116e565b9392505050565b60006060820190508181036000830152611389818661117d565b9050818103602083015261139d818561117d565b90506113ac604083018461131c565b949350505050565b600060408201905081810360008301526113ce818561117d565b90506113dd602083018461131c565b9392505050565b600060208201905081810360008301526113fd816111b6565b9050919050565b6000602082019050818103600083015261141d816111f6565b9050919050565b6000602082019050818103600083015261143d81611236565b9050919050565b6000602082019050818103600083015261145d81611276565b9050919050565b6000602082019050818103600083015261147d816112dc565b9050919050565b6000602082019050611499600083018461131c565b92915050565b6000604051905081810181811067ffffffffffffffff821117156114c6576114c561168c565b5b8060405250919050565b600067ffffffffffffffff8211156114eb576114ea61168c565b5b601f19601f8301169050602081019050919050565b600081519050919050565b600082825260208201905092915050565b6000611527826115b0565b9150611532836115b0565b9250827fffffffffffffffffffffffffffffffffffffffffffffffffffffffffffffffff038211156115675761156661162e565b5b828201905092915050565b600061157d82611590565b9050919050565b60008115159050919050565b600073ffffffffffffffffffffffffffffffffffffffff82169050919050565b6000819050919050565b82818337600083830152505050565b60005b838110156115e75780820151818401526020810190506115cc565b838111156115f6576000848401525b50505050565b6000600282049050600182168061161457607f821691505b602082108114156116285761162761165d565b5b50919050565b7f4e487b7100000000000000000000000000000000000000000000000000000000600052601160045260246000fd5b7f4e487b7100000000000000000000000000000000000000000000000000000000600052602260045260246000fd5b7f4e487b7100000000000000000000000000000000000000000000000000000000600052604160045260246000fd5b6000601f19601f8301169050919050565b6116d581611572565b81146116e057600080fd5b50565b6116ec816115b0565b81146116f757600080fd5b5056fea26469706673582212207a0ff2ec7e0b8cc78775997e973eb751febf084d2f13e1df7e52312251f6d8bc64736f6c63430008000033",
  "immutableReferences": {},
  "source": "// SPDX-License-Identifier: MIT\r\npragma solidity ^0.8.0;\r\n\r\ncontract Voting {\r\n    struct Candidate {\r\n        string name;\r\n        uint voteCount;\r\n    }\r\n\r\n    struct Voter {\r\n        bool hasVoted;\r\n        bool isRegistered;\r\n    }\r\n\r\n    struct AdminAction {\r\n        string action;\r\n        string dataHash;\r\n        uint timestamp;\r\n    }\r\n\r\n    address public admin;\r\n    Candidate[] public candidates;\r\n    mapping(address => Voter) public voters;\r\n    AdminAction[] public adminActions;\r\n\r\n    constructor() {\r\n        admin = msg.sender;\r\n    }\r\n\r\n    modifier onlyAdmin() {\r\n        require(msg.sender == admin, \"Only admin can perform this action\");\r\n        _;\r\n    }\r\n\r\n    function registerVoter(address _voter) public onlyAdmin {\r\n        voters[_voter].isRegistered = true;\r\n    }\r\n\r\n    function addCandidate(string memory _name) public onlyAdmin {\r\n        candidates.push(Candidate(_name, 0));\r\n    }\r\n\r\n    function updateCandidateName(uint _candidateId, string memory _newName) public onlyAdmin {\r\n        require(_candidateId < candidates.length, \"Invalid candidate ID\");\r\n        candidates[_candidateId].name = _newName;\r\n    }\r\n\r\n    function vote(uint _candidateId) public {\r\n        require(voters[msg.sender].isRegistered, \"Voter not registered\");\r\n        require(!voters[msg.sender].hasVoted, \"Voter has already voted\");\r\n        require(_candidateId < candidates.length, \"Invalid candidate ID\");\r\n\r\n        voters[msg.sender].hasVoted = true;\r\n        candidates[_candidateId].voteCount += 1;\r\n    }\r\n\r\n    function getCandidateCount() public view returns (uint) {\r\n        return candidates.length;\r\n    }\r\n\r\n    function getCandidate(uint _id) public view returns (string memory name, uint voteCount) {\r\n        require(_id < candidates.length, \"Invalid candidate ID\");\r\n        Candidate memory candidate = candidates[_id];\r\n        return (candidate.name, candidate.voteCount);\r\n    }\r\n\r\n    function logAdminAction(string memory _action, string memory _dataHash) public onlyAdmin {\r\n        adminActions.push(AdminAction(_action, _dataHash, block.timestamp));\r\n    }\r\n\r\n    function getAdminActionCount() public view returns (uint) {\r\n        return adminActions.length;\r\n    }\r\n\r\n    function getAdminAction(uint _id) public view returns (string memory action, string memory dataHash, uint timestamp) {\r\n        require(_id < adminActions.length, \"Invalid action ID\");\r\n        AdminAction memory adminAction = adminActions[_id];\r\n        return (adminAction.action, adminAction.dataHash, adminAction.timestamp);\r\n    }\r\n}",
  "sourcePath": "C:\\Users\\jagad\\Documents\\Projects\\vote\\contracts\\Voting.sol",
  "compiler": {
    "name": "solc",
    "version": "0.8.0+commit.c7dfd78e.Emscripten.clang"
  },
  "schemaVersion": "3.4.16",
  "updatedAt": "2025-03-20T01:01:15.319Z",
  "networkType": "ethereum",
  "devdoc": {
    "kind": "dev",
    "methods": {},
    "version": 1
  },
  "userdoc": {
    "kind": "user",
    "methods": {},
    "version": 1
  }
}